:020000040000fa
:080000000002040000000000f2
:020000040000fa
:1000080090020000900200009002000090020000a0
:100018009002000090020000900200009002000090
:100028009002000090020000900200009002000080
:100038009002000090020000900200009002000070
:10004800900200009002000090020000921c000044
:100058009002000090020000900200009002000050
:100068009002000090020000900200009002000040
:100078009002000090020000900200009002000030
:100088009002000090020000900200009002000020
:100098009002000090020000c621000090020000bb
:1000a8009002000090020000900200009002000000
:1000b80090020000900200009002000090020000f0
:1000c80090020000900200009002000090020000e0
:1000d80090020000900200009002000090020000d0
:1000e80090020000900200009002000090020000c0
:1000f80090020000900200009002000090020000b0
:10010800900200009002000090020000900200009f
:10011800900200009002000090020000900200008f
:10012800900200009002000090020000900200007f
:10013800900200009002000090020000900200006f
:10014800900200009002000090020000900200005f
:10015800900200009002000090020000900200004f
:10016800900200009002000090020000900200003f
:10017800900200009002000090020000900200002f
:10018800900200009002000090020000900200001f
:10019800900200009002000090020000900200000f
:1001a80090020000900200009002000090020000ff
:1001b80090020000900200009002000090020000ef
:1001c80090020000900200009002000090020000df
:1001d80090020000900200009002000090020000cf
:1001e80090020000900200009002000090020000bf
:0801f8009002000090020000db
:020000040000fa
:10020800900200009002000090020000900200009e
:10021800900200009002000090020000900200008e
:10022800900200009002000090020000900200007e
:10023800900200009002000090020000900200006e
:10024800900200009002000090020000921c000042
:10025800900200009002000090020000900200004e
:10026800900200009002000090020000900200003e
:10027800900200009002000090020000900200002e
:10028800900200009002000090020000900200001e
:100298009002000090020000c621000090020000b9
:1002a80090020000900200009002000090020000fe
:1002b80090020000900200009002000090020000ee
:1002c80090020000900200009002000090020000de
:1002d80090020000900200009002000090020000ce
:1002e80090020000900200009002000090020000be
:1002f80090020000900200009002000090020000ae
:10030800900200009002000090020000900200009d
:10031800900200009002000090020000900200008d
:10032800900200009002000090020000900200007d
:10033800900200009002000090020000900200006d
:10034800900200009002000090020000900200005d
:10035800900200009002000090020000900200004d
:10036800900200009002000090020000900200003d
:10037800900200009002000090020000900200002d
:10038800900200009002000090020000900200001d
:10039800900200009002000090020000900200000d
:1003a80090020000900200009002000090020000fd
:1003b80090020000900200009002000090020000ed
:1003c80090020000900200009002000090020000dd
:1003d80090020000900200009002000090020000cd
:1003e80090020000900200009002000090020000bd
:0803f8009002000090020000d9
:020000040000fa
:100400002fa120000e7f22000e01880000000000b6
:100410000c000700c03b2200010020001100070073
:10042000000020000000e000020032000000020096
:1004300000000000c20f0200000000000040da00cf
:100440000000fe004440a900203a20000000e00027
:100450000300320000002000a00188004440a800f2
:100460000000060091018800800078000000eb0089
:1004700015003700e280400032a0b4009101ba00bc
:10048000e280400032a0b4009102ba00e280400055
:1004900032a0b4000002eb00472bde00f507b200eb
:1004a000602ce10004003a000059eb008301e900f0
:1004b000fdff3e00040037006128e100010032002a
:1004c0000082eb00040007001101ba000200e00006
:1004d000e8ff3a00000006003159ba008301e90044
:1004e0000c0032002159ba008301e90008003200f3
:1004f0000400e00003003a00e280400032a0b400b3
:10050000f5ff370011d9ba008301e900faff3a007c
:100510008100e800e180400032a0b4000000060045
:100520000040da000000fe000001be001b000700d2
:100530000470a70003f0a10003f8a30013003a0021
:100540006509b10010003200090035006928e1009a
:1005500002003500010028000000050000004000f6
:10056000818048008502e900fcff3a000000060097
:10057000f88f4200050035008100d1000080d300d3
:100580008502e800fcff3a00000006008000eb0056
:10059000000005006011b80059003700c70ade00ee
:1005a000f107b200f50fb20008003200e1cf4200bf
:1005b000020032000170a00024000500810f7000cd
:1005c000010032000408050044000500810f70009e
:1005d00002003a00140005008502e9000000400016
:1005e00081c04800fcff3b000170a0002400050012
:1005f000889fbe008a9fbe008c1f78009500070070
:100600009c00330003866c006450e100240032003b
:100610006420e100270032006150e1002200320036
:100620006120e100210032008b854200eb07b10020
:100630000134b800003ab8000804420089844a0036
:10064000013ab8000030b8008880400009014a0033
:10065000040033000000400081804800020149008e
:100660008b05e900c909dd0083017000010032003b
:1006700013002000c814de004814dd004709de0026
:100680001200b200c808de00088470004b000700aa
:1006900001f0a1000cf0a70001f0a0007e003700df
:1006a0006120e100800032000801be000200be00af
:1006b000f7ff37006150e100fcff3a007a00370095
:1006c0006022b800060220000000d0008180d20025
:1006d0000482d2008582d2000000a00002025200f3
:1006e00083825a00030031000202420083824a00e2
:1006f0000000a1000603e900f3ff3a000000060035
:10070000889fbe008a9fbe000082700004027100b4
:1007100004827100260032000004be000200be0008
:100720006011b8006b092000950220000182cf0003
:100730000a0039000541b1000082cf0007003900ee
:100740000541b1000982cf00040039000541b10024
:100750000882cf00010039000541b1000542520076
:10076000120032000a003b008281710061016400c6
:100770008100d1000080d3008984d3000884d30095
:100780008b05e8000442e800f7ff3a000700370055
:100790000804440089844c0000004800818048001f
:1007a0008b05e9000442e900f9ff3a000300070065
:1007b0004f05be004f04be0000000600810020006f
:1007c000618055000b003d000b00200061fe2f00f2
:1007d0000100e1001d0034008281710061016400ac
:1007e0008904d1000884d3000000e800faff3a0031
:1007f00071002000610064000300700002006000ce
:100800000900320061044400e0844c000988a5001e
:10081000050032008b05e8006808e10002003a009c
:100820008904d1000884d300f20f20000258e100af
:1008300005003d00c75ddd00f907b2008980750045
:1008400008007800000006000bf827008b007800f5
:10085000000005000004be0050ff07000003be00ba
:100860000405be000200be004cff0700844f750067
:10087000000006000200be006450e10005003600e2
:100880006420e100020036000968a30001003a007c
:100890000800be000160a0004f0678004f05be00b2
:1008a0004f04be0000000600f0ff2f00f1ff2700fc
:1008b000f9ff37008001780002003700b159780055
:1008c000040178000202e900e00f5100fbff3a004a
:1008d000000006000c00fa00889fbe0000047800ab
:1008e000f0ff2700d0bf9f008004eb0099bf9f005e
:1008f00088bf9f00a8bf9f00200c2000b0bf9f00b2
:1009000078815700cfb0970070805700070007002c
:100910000fb89700094878008fb8970008805000fa
:100920004f04be000080fa00000006008f03b000f4
:10093000889fbe008a9fbe008c9fbe008e1f7800dd
:10094000c0b79f00e1af9f00b2af9f000000eb0077
:10095000b0b79f00f2023700efa897008100e800cf
:10096000e1af9f0052c2b300824f500006003a0030
:100970000047eb0003c3b30065415100b1c2b300af
:100980006fa8970011003700cfb197003301900096
:100990000204b2000400320013017800004978001c
:1009a0008209e800050037000000fb00cfb0970087
:1009b000e7020700e10f4000d90232003fb2970082
:1009c0000402e800b4b79f00d50237001042780057
:1009d000d5c2b300854f52000c0032008002e800ff
:1009e000d6c2b300864f520005003c00824f520031
:1009f00009003200814f52000e003a000800370013
:100a0000834f52000b003a00070037000e34a0005d
:100a10000000e800edff37000e04a00003003700df
:100a20000e14a000010037000e24a000050078007d
:100a3000e6ff3700e0af9f00620067000100320070
:100a40000e04a10068006700010032000e24a1001e
:100a50000400fb000003b100e90f50000d003e0050
:100a6000000020006fa997006a00b9000003b100e0
:100a70009200fb0001004000d200fb000103b10026
:100a8000e98f5000f8ff3600c0af9f00e2af9f0033
:100a90000c0037000005eb00caaf9f00a3c2b300f3
:100aa000834f520007003a00bfad97004b06780015
:100ab000bbaf9f00ccaf9f006fa897000000e8007d
:100ac000e0af9f008000eb00d1af9f00e3c2b30016
:100ad0006fa9970092cf11001c003a00e4c15100a9
:100ae0000201e800e2af9f0012427800834f5200fb
:100af0000d003a00bfaa970045037800b5af9f00ec
:100b0000d6af9f00820378008703e800e7af9f001d
:100b10000e0037006a00b9000003b1000200400077
:100b20008301e800020037005fa89700efa9970053
:100b30001301fb0001fd2f0082804000e98f50006f
:100b4000f4ff3600d0af9f00e3af9f0032c6b30082
:100b5000c1c6b300efaa970035427800c47f9f005a
:100b600038c7b300884f52001a00320008003c001a
:100b7000824f520097003200814f52000c00320029
:100b8000e5af9f00e04f52006a023200b00037002c
:100b9000e5af9f0053c7b300834f5200b20032004d
:100ba000e3c14100834f5200a9003a00060037001c
:100bb000f00167000040eb0001003a0000c1b30003
:100bc00000477700e4ff37000e4178000274a00070
:100bd000a7003700e5af9f003fad97004a027800bd
:100be000baaf9f00f4af9f00e00f520002003a003e
:100bf0002c9f2000fcaf9f000000eb0080b79f00ff
:100c00007fa897008fb097001fb19700afb19700f2
:100c1000010037008500e800810278006142780019
:100c2000e04f5200fbff3a00f0af9f0081b79f00fa
:100c300092b79f00a3b79f00dfaa9700e08f5200f2
:100c4000050032000fb39700868f5200020031007a
:100c50008503780087b79f000fb297000006eb006e
:100c60004fac9700840f5400010036000406540076
:100c70008e047800688764002f003a000c0078002a
:100c800008c2b300cfb69700100037003d009000b7
:100c90000004b200040032001d007800084878000b
:100ca000800ee800050037008d007800000220006b
:100cb00027020700e10f4000030032003fb5970014
:100cc0000a05e800bab79f000c0078000c06e9009e
:100cd000e00f5000edff3a00170037003d00900094
:100ce0000004b200090032009d017800080178007c
:100cf0003240780080497800830ee80002047800d2
:100d0000e04f500008003a0010003700080178005a
:100d10003200fb00020478008d0078000c0207000e
:100d2000e10f4000090032003fb097000000e800ea
:100d3000b0b79f00050037007fac97008fb49700d5
:100d40001fb59700afb59700cfb6970009007800a0
:100d50008004e900e00f5000e0ff3a00f8af9f0088
:100d600089b79f009ab79f00abb79f00e00f57006d
:100d7000eb01320011003700380090000004b2008f
:100d800004003200180078000d487800000ce800dc
:100d9000050037008800780000022000ec01070001
:100da000e10f400003003200bfb297008502e80067
:100db000b5b79f000e067800020037000dc2b300e1
:100dc0004fb497000c07e900e00f5600eaff3a0025
:100dd000d3013700e5af9f003fab97004604780092
:100de000b6af9f00cfc4de00090578008a05780001
:100df0000802be000a03be004822de00482edd00c5
:100e000004027600c47f9f0070066700090032006c
:100e1000e04f520007003200e14f4200050032006f
:100e2000d47f9f00e87f9f002100200081b79f00b2
:100e300003003700d87f9f001200200082b79f0078
:100e4000d3fb2f0083814700f3af9f007aff370069
:100e5000c4fb2f0004824700f4af9f001500200060
:100e600085b79f0074ff370002ccb30002417700c2
:100e70000281fb00a2af9f007003610086a79f0064
:100e8000120032003fad97004a04be00baaf9f0087
:100e9000d8a79f00e9a79f008005eb00fba79f0054
:100ea0000006eb008caf9f005fa09700efa09700bb
:100eb0007fa197008fa99700f0af9f0081b79f0097
:100ec00092b79f00a3b79f000b003700bfa8970001
:100ed00041027800b1af9f000404780009002000af
:100ee0000a0020000b002000f8af9f0089b79f0088
:100ef0009ab79f00abb79f00dfac9700e08f54001c
:100f00000d003a001a002000daaf9f007fa897007a
:100f10008fb097001fb19700afb19700e00f50005e
:100f2000e08f5800e00f5900e08f590002003200b6
:100f30008000eb00d1af9f002fa99700020cb200f8
:100f400092af9f0004082000840f51001b00320064
:100f5000040c2000840f510033003a0012c0b3008b
:100f6000c27f9f00c5922000100037000400fb00e4
:100f70004300dd00008042005001be004000be0082
:100f80007fac97008fb497001fb59700afb597005f
:100f90000040e10001c8e10002d0e10003d8e10017
:100fa000210039000442e800c47f9f004f7a970077
:100fb000f44f5200edff3a001b00370012c0b3009f
:100fc000c27f9f0004012000050020006033b800ac
:100fd000120037007fac97008fb497001fb59700c1
:100fe000afb597000440e10005c8e10006d0e1007c
:100ff00007d8e1000c003900490020000402d000ad
:101000008582d2000683d2008783d2008904e9005a
:10101000faff3a000040e800c07f9f004f78970039
:10102000f04f5000ebff3a004f7d97000a02fb00a3
:10103000dfad97008b0f520002003d00cb7f9f0079
:10104000040037005fae9700840f560001003d009a
:10105000d4af9f004fa89700e00f5000050032006a
:10106000afa8970063826000020032000000e90030
:10107000c0af9f004f7997000202fb000007eb0012
:10108000cfa99700848f51000100340004875100dc
:10109000afaa9700648262004a0032006282620056
:1010a00005037800e1026300e00f52001b003200ec
:1010b000cfb39700370290000404b2000900320059
:1010c00017037800b4c2b300e08f52000100320071
:1010d00004c2e800044b78004fb49700060ce80007
:1010e0000a003700d4022000e08f520001003a00cd
:1010f0000482e900cfb097000400780014010700d3
:1011000000027800e10f420018003200bfb49700df
:101110008904e800b9b79f0014003700e08f52003f
:10112000120032004fb597003a0290000404b2005a
:10113000050032001a02780002c2b300024a7800a9
:10114000040de80006003700cfb097000002200031
:10115000ff00070000027800e10f420003003200a8
:10116000bfb597008b05e800bbb79f00e00f5700a5
:10117000c500320008c3b300bfb697004fb6970052
:101180003c0090000004b200040032001c00780013
:1011900008487800000ee800050037008c00780051
:1011a00000032000ea000700e10f400001003200c8
:1011b0008d06e8000e07e900f1ff3a00bdb79f0079
:1011c000b1003700e00f5700160032002fae970035
:1011d0006802660013003a0008c2b300bfb6970069
:1011e0004fb697003c0090000004b20004003200ab
:1011f0001c00780008487800000ee8000500370061
:101200008c00780000022000d1000700e10f4000b0
:10121000010032008d06e8000e07e900f1ff3a00f8
:10122000bdb79f002fa8970062026000e102600036
:10123000e00f52001b003200cfb097003102900047
:101240000404b2000900320011037800b4c2b300f4
:10125000e08f52000100320004c2e800044b780025
:101260004fb197000609e8000a003700d4022000b9
:10127000e08f520001003a000482e900cfb09700ed
:1012800004007800b200070000027800e10f42007d
:101290007d003200bfb197008301e800b3b79f0023
:1012a00079003700e08f520077003200cfb297000c
:1012b000350290000404b2000500320015027800e7
:1012c00002c2b300024a7800840ae8000600370030
:1012d000cfb09700000220009d00070000027800b8
:1012e000e10f4200680032003fb397000603e800b8
:1012f000b6b79f00640037000e07e9000008200021
:101300001fac9700800f540032003200000c200008
:10131000800f54003e003a004370dd008fa4970018
:10132000e08f54001a0032000406be00ca9220006a
:10133000000045003004be002005be000801be00cc
:101340000400be00defc0700c07f9f000000fb0021
:10135000cf80de000801be00330107000001560007
:1013600081815e0092a79f00a3a79f008001eb00f0
:10137000b3a79f000002eb00c4a79f001fa2970025
:10138000afa297003fa39700cfa397000d003700af
:10139000c892200068017800811f780011000900c0
:1013a0000282d800cf007800a2002000811f7800c0
:1013b000110009000280d80001007800cf007800f9
:1013c000c07f9f00cf7c97000943b000c97f9f007a
:1013d0000f0037004270dd000605be000404be00a9
:1013e000000678000c06e900050033008b05d100eb
:1013f0000a85d3008984d3000884d300f9ff37001d
:101400006f006400919f200061407800c07f9f00c2
:101410004fb19700320090000004b2000800320083
:1014200082017800130178004f7897000049780016
:101430008209e800e04f50000f003a001900370021
:101440004f7c97000800fb00cfb09700d4b79f00f7
:10145000e5b79f00f6b79f0087bf9f003c000700dd
:101460005fb29700efb297007fb397008fbb9700f2
:10147000e10f40000b003200bfb497008904e80080
:10148000b9b79f00070037000e057800caaf9f006c
:101490005faf97007faa97008fb297001fb39700a6
:1014a000afb39700e00f570093ff3a004faf97009c
:1014b000f4af9f0085b79f0096b79f00a7b79f0026
:1014c000afa897006881600015003200e00f570058
:1014d0001300340008c2b300bfb697004fb69700a0
:1014e0003c0090000004b200040032001c007800b0
:1014f00008487800000ee800050037008c007800ee
:101500000002200012000700e10f4000010032003d
:101510008d06e8000e07e900f1ff3a00bdb79f0015
:101520006fa9970012407800c07f9f00e04f5000e5
:1015300009fd3a003fb097004f0778004f06be0004
:101540004f05be004f04be008f03b100000006002f
:10155000889fbe0001047800b8009000628160009e
:101560008084eb003c003200810178000320b2004f
:101570001801900002003a00e00f510036003a00d6
:101580000190a0003104980080047800f90fb200a7
:10159000e00f510002003a0028009000000c780093
:1015a000ea8f540006003a00010078000008b200fb
:1015b00003003a0088007800d0002000e4ff070014
:1015c00018009000d8009000810f50000b003200ee
:1015d0000000e8001004980018007800094878001e
:1015e000000ce80010c0b300a1a0200080487800e3
:1015f000ea8f540018003a00050037008800780090
:1016000009407800170007008004780012003700b6
:10161000380090000010b2000f0032001801900056
:10162000a80090004800900050000700980090002b
:10163000810f500004003200380090000003b30016
:10164000300498008084eb000000eb001004980048
:1016500028009000000c7800090078004f04be00bc
:10166000000006000200fa00889fbe00a0ff9f0055
:101670000104780038009000800078000104b20076
:1016800033003a00e200600005003a000003b300b6
:1016900030049800110498000080eb002e00370001
:1016a000d8049000e08f540006003a001200200099
:1016b000e6805700480090002c00070019049800ad
:1016c00023003700a8009000e08f500008003a0087
:1016d000d1a0200021049800010c780021002000f6
:1016e00051049800110498000030a00030049800c4
:1016f00018019000a8009000480090001b0007000f
:10170000280090008080eb0011049800aff897004b
:1017100001487800000ce8002ff89700ea4f5000cd
:101720000b003a00380090000010b20008003200b0
:1017300018019000a8009000480090000b000700de
:101740000000eb0010049800a8009000010c780045
:10175000aff897000100fb004f04be000080fa00c4
:101760000000060000c0da00000006000a00fa00cf
:10177000e20f500021003e0080508000e10f500039
:10178000060032008523200044232000232320006c
:1017900000232000e08f520004003a008522200040
:1017a00044222000232220000022200006002800de
:1017b0009003630002003a00870a78001008730063
:1017c000004020001300600001003a0013a0a000b8
:1017d0000200780006003700930278000510b2007e
:1017e000fdff3200b102fb00050a78000000e900ad
:1017f000e00f5000f8ff3a000800370033002000e7
:10180000b3bf9f00c0bf9f00d1bf9f00e2bf9f003a
:101810006a805700d3ff07006fb997000200780075
:101820000080fa0000000600020ab900001bb9009f
:101830000200b80081004200810043000000060061
:020000040000fa
:10184000303000002e3000003100000053650000f1
:1018500070200000333000002032000030310000e2
:1018600033000000323200003a310000303a00000c
:101870003238000000570000694600006c79000013
:101880002050000061730000735f00007468000066
:10189000727500000a440000656d00006f000000d2
:1018a000242400002400000020200000202000004c
:1018b0002020000020200000202000002020000028
:1018c00020200000202000000a200000202000002e
:1018d0002020000020200000202000002020000008
:1018e00020200000202000002000000053360000cf
:1018f000207400006f200000676f0000206200006d
:10190000616300006b200000202000000a530000eb
:101910003520000077680000656e0000206400003c
:101920006f6e0000652000002020000020000000f5
:1019300073650000742000006970000020700000d2
:10194000726f0000746f000020310000380d00003d
:101950000a0000007365000074200000646e00003f
:10196000732000006e6100006d65000020370000ec
:10197000342e000032300000382e0000372e0000d8
:10198000330d00000a0000007365000074200000a1
:101990006970000020720000656d00006f74000027
:1019a00065200000383000000d0a000000730000c0
:1019b00065740000206300006f6d00006d20000062
:1019c000726500006d6f000074650000203000003b
:1019d0000d0a00000073000065740000206900001b
:1019e00070200000746900006d6500007220000026
:1019f000310d00000a000000736500007420000033
:101a000069700000206100002031000039320000c0
:101a10002e310000363800002e3100002e3100003b
:101a2000313500000d0a00000073000065740000ed
:101a30002069000070200000686f000073740000cf
:101a400020370000342e000032300000382e000015
:101a5000372e0000330d00000a00000073650000ff
:101a600074200000697000002067000061740000ad
:101a700065770000617900002031000039320000f4
:101a80002e310000363800002e3100002e310000cb
:101a90000d0a00000073000065740000206400005f
:101aa0006e7300002061000020360000382e000018
:101ab00031300000352e0000323800002e31000099
:101ac000320d00000a000000736500007420000061
:101ad000636f00006d6d000020720000656d0000f6
:101ae0006f7400006520000047450000542400008a
:101af0002f6200006f6100007264000073680000d4
:101b00006f720000746d0000657300007361000067
:101b100067650000732f000031000000736500004e
:101b200074200000776c0000616e000020730000dc
:101b300073690000642000002020000020200000c5
:101b40002020000020200000202000002020000095
:101b50002020000020200000202000002020000085
:101b60000d0a00000073000065740000207700007b
:101b70006c6100006e20000070680000726100005f
:101b800073650000207000006f6f00004b7500004f
:101b90006d73000034390000360d00000a000000ab
:101ba00073610000766500000d0a0000005300001c
:101bb000657000007432000032200000353a0000e9
:101bc00034380000504d000020200000200a0000a2
:101bd000736f0000636b00006574000020670000f5
:101be00065740000732000006f6e00006c790000c7
:101bf000006a00006f6900006e20000020200000d5
:101c000020200000202000002020000020200000d4
:101c1000202000002020000020200000200d0000d7
:101c20000a0000006e6f0000706500000d0a0000e1
:101c3000006e00006f700000652000002020000092
:101c40002020000020200000202000002020000094
:101c5000200a00002020000020200000202000009a
:101c60002020000020200000202000002020000074
:101c700020200000006f0000706500006e0d000065
:101c80000a00000021000000696c00006f6f000076
:101c9000702000003d2000002020000020200000d7
:101ca00020200000202000000a4c00006f6f000080
:101cb00070200000746f000020320000352000000a
:101cc0002020000020200000200000000d0a00005d
:101cd0000020000020200000202000002020000024
:101ce00020200000202000002020000020200000f4
:101cf00020200000202000002020000020200000e4
:101d0000200d00000a0000000d0a00006a6c0000af
:101d10006f6f0000703d00002020000020200000b8
:101d200020200000202000002020000020000000d3
:101d300043680000616e0000536500006c3d0000c8
:101d4000202000002020000020200000736b0000f5
:101d500069700000200d00000a00000043680000c8
:101d6000616e0000536500006c3d00002020000003
:101d7000202000002000000043680000616e000089
:101d8000546900006d6500003d2000002020000027
:101d9000202000000020000020200000001b000088
:101da0005b3200004a0000001b5b0000480000009e
:101db00077690000666c0000795f000070610000c8
:101dc000737300005f74000068720000755f0000ac
:101dd000646500006d6f00005f65000078700000b2
:101de000313600005f700000323400002e2e0000fb
:101df0002e0d00000a0000007665000072730000de
:101e0000696f00006e3a000020250000730d00008d
:101e10000a00000062750000696c00006420000088
:101e200064610000746500003a2000002573000022
:101e30000d0a000000620000756900006c6400007b
:101e400020740000696d0000653a00002025000044
:101e5000730d00000a0d00000a00000075730000f9
:101e6000652000006120000074650000726d0000b4
:101e7000696e0000616c0000206500006d75000057
:101e80006c610000746f000072200000746f00002d
:101e9000206300006f6d00006d7500006e6900002a
:101ea0006361000074650000206400006972000036
:101eb00065630000746c0000792000007769000001
:101ec000746800002074000068650000206d000048
:101ed0006f640000756c0000652e00002e2e00005f
:101ee0000d0a00000d0a0000002800006f700000bd
:101ef000746900006f6e0000616c00002920000012
:101f000070720000657300007320000053340000fd
:101f1000206f00006e20000045780000706c00000b
:101f20006f720000657200003136000020740000fe
:101f30006f200000726500007365000074200000cf
:101f400057690000466c000079200000746f0000a3
:101f50002066000061630000746f00007279000069
:101f60002064000065660000617500006c7400006c
:101f7000732e00002e2e00000d0a00000d0a000036
:041f8000000000005d
:020000040000fa
:101f84001e00fa002b0507000040eb0025e9b7000e
:101f9400ca0a07000040eb00304798000d003700e4
:101fa4003e4090000080fb00800047000040eb00b2
:101fb400805098003e4090000080fb008000470065
:101fc40010c0b300f05098003e4090000040e8007c
:101fd400304798003e409000e64f5000f0ff360036
:101fe400c402a800803e2000a30a0700c402a9007e
:101ff400c422a800803e20009f0a0700c422a90032
:10200400c442a800803e20009b0a0700c442a900e5
:10201400c462a800803e2000970a0700c462a90099
:10202400c482a800803e2000930a0700c482a9004d
:10203400c4a2a800803e20008f0a0700c4a2a90001
:10204400c4c2a800803e20008b0a0700c4c2a900b5
:1020540052012000b1c328000080200014fa0700b8
:10206400008020002309070080382100820a07002d
:102074004200200001c52800008020000cfa07005f
:1020840000802000e3050700008020007708070097
:102094002202200041c528000080200004fa070025
:1020a40001c8b3000000eb00fd080700800c20000d
:1020b400710a0700008020000e0907000040eb00b1
:1020c400304798000040eb00004f78000040eb00e0
:1020d400604798002e050700504798002202200010
:1020e40061c7280000802000f1f90700008020006b
:1020f400450507000040eb001047980000c0eb00c6
:10210400404798000040eb00004f980080c0b300a7
:102114006047980080c4b30080e8b700f0c6b300fd
:1021240081e8b70070c6b30082e8b70070c7b30097
:1021340083e8b70010c6b30084e8b70020c7b30033
:1021440085e8b70040c7b30086e8b70030c7b300de
:1021540087e8b700e60037002202200041c52800c6
:1021640000802000d2f90700f1040700304f9800e6
:102174003e4890008000fb004e4090000000fb00b1
:1021840065004000808f500007003c003e489000ee
:102194008000fb004e4090000000fb0065005000f2
:1021a400808f500006003d003e489000654050007e
:1021b400404798000040eb00104798000b003700a0
:1021c4001e409000e04f5000050032004e40900049
:1021d4000040e800404798000040eb00104798009a
:1021e4001e4090000040e80010479800ce40900048
:1021f40000c2b30080cf500002003c0000c2b30014
:1022040040479800ce409000f0c7b30080cf500004
:1022140002003a00f0c7b300404798006e409000b7
:10222400e04f5000160034000040eb0020479800b7
:102234000d0037002e4090000081fb002e409000de
:102244008080fb000088200000804000104078005f
:102254000180200081004100804878002e409000d9
:102264000040e800204798002e4090008080fb004a
:102274006e4090000000fb00808f5000edff3500a1
:102284006e4090008000fb00008020000080400031
:10229400ce40900001487800f0c5b30011e8b700c3
:1022a400f0c5b30012e8b700f0c5b30013e8b700f7
:1022b400f0c5b30014e8b70000c3b30015e8b700d5
:1022c4006e4090008000fb00a00020000001780018
:1022d400110009008200d8008000fd000040780051
:1022e4000043b00016e8b70000802000d5040700c2
:1022f4000040eb00704798000040eb00004f98004e
:102304000040eb0020479800100037007e4090000a
:102314000004a200e04f5000070032000e48900075
:102324000004a200e04f50000300320098040700ac
:1023340050479800020037000040eb0050479800d7
:102344002e4090000040e800204798002e40900066
:10235400e54f5000edff36005e409000e14f500025
:102364000f003a006e4090008000fb0000882000bf
:1023740000804000ce419000034878006e409000f9
:102384000040e800604798000040eb005047980088
:10239400a0c2b30011e8b70010c0b30070479800a2
:1023a4005e409000e24f50000c003a006e409000f6
:1023b400e04f5000030032006e4090000040e900fe
:1023c400604798000040eb0050479800a0c2b3005b
:1023d40012e8b70010c0b300704798005e40900048
:1023e400e44f50000e003a0010c0b300004f9800b4
:1023f4006e409000e04f5000030032006e409000a9
:102404000040e900604798000040eb005047980006
:10241400a0c2b30013e8b70060c0b300204798001f
:102424007e409000e04f5000130032002e40900098
:102434000080fb006100600000407800e04f500025
:10244400070032006e4090008000fb0000802000f6
:102454008080400000c2b300804878000600370046
:102464006e4090008000fb000080200080804000cf
:10247400f0c5b30080487800008020007104070094
:10248400040037004204070050479800400620002b
:10249400790907005e409000e04f5000f9ff3a00d0
:1024a400f0c5b30011e8b700f0c5b30012e8b700f7
:1024b400f0c5b30013e8b700f0c5b30014e8b700e3
:1024c40000c3b30015e8b7006e4090008000fb0025
:1024d400a000200000017800110009008200d8004b
:1024e4008000fd00004078000043b00016e8b7000b
:1024f4000e4890000004a200e04f500016ff3a007e
:102504002202200041c5280000802000e8f80700ce
:102514006e409000e04f5000390034000040eb0062
:10252400204798000d0037002e4090000081fb00ea
:102534002e4090008080fb00008820000080400036
:10254400104078000180200081004100804878001c
:102554002e4090000040e800204798002e40900054
:102564008080fb006e4090000000fb00808f5000d4
:10257400edff3400f0c5b30011e8b700f0c5b300b7
:1025840012e8b700f0c5b30013e8b700f0c5b30014
:1025940014e8b700ee4090006e4090000001fb008c
:1025a400a000200080017800811f7800110009003c
:1025b4000301d8000001780001007800cf00780002
:1025c4000040780000c050000043b00015e8b70098
:1025d4006e4090008000fb00a00020000001780005
:1025e400110009008200d8008000fd00004078003e
:1025f4000043b00016e8b700008020001104070073
:10260400803821001c0907002201200081c928000c
:1026140000802000a6f807000080200016040700b0
:10262400a2012000a1ca280000802000a0f8070011
:1026340000802000100407003201200041cc280053
:10264400008020009af80700008020000a04070098
:102654004201200071cd28000080200094f807007a
:10266400008020000404070012012000b1ce2800dd
:10267400008020008ef8070000802000fe03070081
:1026840092012000c1cf28000080200088f80700b4
:1026940000802000f80307009201200051d1280097
:1026a4000080200082f8070000802000f203070069
:1026b400d2012000e1d22800008020007cf807002d
:1026c40000802000ec03070092012000b1d4280010
:1026d4000080200076f8070000802000e603070051
:1026e400a202200041d628000080200070f80700d4
:1026f40000802000e003070052022000e1d82800f7
:10270400008020006af807000040eb002047980092
:10271400140037002e4090008080fb006e40900033
:102724000000fb00808f50000b003c002e40900006
:102734000080fb006e0140002e4090008080fb0072
:1027440000882000008040001040780001802000b4
:1027540081004100804878002e4090000040e8004d
:10276400204798002e4090008080fb006e4090002f
:102774000000fb00808f5000e6ff34000080200042
:10278400bd03070000802000ae030700007d200089
:10279400b9080700d201200031db280000802000a6
:1027a40043f8070000802000b303070072002000f4
:1027b40001dd2800008020003df807000080200093
:1027c400ad030700800c2000ab08070001c8b3006c
:1027d4000000eb0032070700800c2000a608070069
:1027e4002202200071dd28000080200030f807005c
:1027f400008020009d060700008020003d070700a0
:10280400007d20009c0807009201200091df280031
:102814000080200026f807000040eb0020479800c5
:10282400140037002e4090008080fb006e40900022
:102834000000fb00808f50000b003c002e409000f5
:102844000080fb00650140002e4090008080fb006a
:1028540000882000008040001040780001802000a3
:1028640081004100804878002e4090000040e8003c
:10287400204798002e4090008080fb006e4090001e
:102884000000fb00808f5000e6ff34000080200031
:1028940079030700008020006a03070080382100c4
:1028a4007508070025c9bf00e04f5000150032002d
:1028b400208a20006d060700800c20006e080700a7
:1028c40001c8b3000000eb00f50607002202200057
:1028d40041c5280000802000f5f707000080200093
:1028e40004070700800c20006308070001c8b30038
:1028f4000000eb00ea060700208a2000fd0607001e
:10290400130037007200200021e12800008020001d
:10291400e7f707000080200054060700800c200021
:102924005508070001c8b3000000eb00dc060700ef
:102934002202200091e1280000802000dcf707003b
:10294400800c20004c08070000802000e9060700e6
:10295400007d2000480807000040eb002047980055
:10296400ae02370010c0b30025e9b7000040eb0009
:1029740029e9b7000000eb0030498800720020000c
:10298400b1e3280000802000c9f707000080200080
:1029940036060700008020009e030700803e2000ca
:1029a400350807002200200021e4280000802000d0
:1029b400bff70700008020002c06070000802000dd
:1029c40094030700007122002b0807004200200036
:1029d40001c5280000802000b5f707000080200012
:1029e40022060700008020008a030700800c2000d4
:1029f4002108070001c8b3000000eb00a806070087
:102a0400800c20001c0807002202200041e428005a
:102a140000802000a6f707002e4090008080fb0075
:102a2400a000200080017800110009008380d800f4
:102a34008000fd00004078000043b00009e8b700c2
:102a440000c3b30008e8b7002e409000e94f5000df
:102a5400050036002e409000f34f500002003e0067
:102a640010c3b30008e8b7002e409000f34f5000a5
:102a7400050036002e409000fd4f500002003e003d
:102a840020c3b30008e8b7000080200099060700bf
:102a9400800c2000f807070029c9bf00e04f500050
:102aa4009a003200208a2000f0050700220220004c
:102ab40041c52800008020007df707000045800004
:102ac400004078008000fb00a00020000001780096
:102ad400110009008200d8008000fd000040780049
:102ae4001047980000458000804078001e40900008
:102af40000c050008000fb00a0002000800178008e
:102b0400110009008300d80000407800404f98006d
:102b14004e4890006a00b9000000780080407800b8
:102b24001e40900000c04000504f98004e48900056
:102b34000043b00001e8b7001e4090000043b0001d
:102b440002e8b70000802000be020700007d2000dc
:102b5400c90707005e489000ef4f500015003e0083
:102b64000040eb00304798000d0037003e409000d5
:102b74000081fb003e4090008080fb00208a200002
:102b84000080400010407800018020008100410056
:102b9400804878003e4090000040e80030479800ac
:102ba400be4090005e48900080cf5000efff36009a
:102bb400530037005e489000fe4f50002800360056
:102bc4000040eb00304798000d0037003e40900075
:102bd4000081fb003e4090008080fb00208a2000a2
:102be40000804000104078000180200081004100f6
:102bf400804878003e4090000040e800304798004c
:102c04003e409000ef4f5000f0ff360000c1b3008b
:102c1400304798000e0037003e4090000080fb00d3
:102c24000001e8003e4090008080fb00208a2000e4
:102c340000804000104078000180200081004100a5
:102c4400804878003e4090000040e80030479800fb
:102c54003e409000ff4f5000efff36002800370041
:102c64000040eb00304798000d0037003e409000d4
:102c74000081fb003e4090008080fb00208a200001
:102c84000080400010407800018020008100410055
:102c9400804878003e4090000040e80030479800ab
:102ca4003e409000ef4f5000f0ff360000c1b300eb
:102cb400304798000e0037003e4090000080fb0033
:102cc4000001e8003e4090008080fb00208a200044
:102cd4000080400010407800018020008100410005
:102ce400804878003e4090000040e800304798005b
:102cf400be4090005e48900080cf5000eeff36004a
:102d0400008020004f0207001300370072002000eb
:102d140021e1280000802000e5f607000080200063
:102d240052050700800c20005307070001c8b300b8
:102d34000000eb00da0507002202200091e12800e0
:102d440000802000daf60700800c20004a07070004
:102d540000802000e705070010c0b300204f980052
:102d640010c0b300604f9800c0c0b3003047980053
:102d7400550037003e4090008080fb00208a2000f0
:102d84000080400090407800f0c2b30080cf500033
:102d9400480034003e4090008080fb00208a2000e0
:102da400008040009040780090c3b30080cf500072
:102db40040003c003e409000e84f500001003a00c3
:102dc400c402a8003e409000e94f500001003a00c0
:102dd400c422a8003e409000ea4f500001003a008f
:102de400c442a8003e409000eb4f500001003a005e
:102df400c462a8003e409000ec4f500001003a002d
:102e0400c482a8003e409000ed4f500001003a00fb
:102e1400c4a2a8003e409000ee4f500001003a00ca
:102e2400c4c2a8003e40900061406000e04f5000e2
:102e340009003a003e4090008080fb00208a200078
:102e440000804000104078008040780000cdb3003e
:102e540000cf4000190037003e4090000080fb0086
:102e64008000e90020002000000178001100090022
:102e74008200d800660150001e4078006a00b90044
:102e840000007800804078003e4090008081fb0084
:102e9400208a2000008041001040780080c040005b
:102ea40000cdb30000c0400082004700f0509800fd
:102eb400020037000040eb00204f98003e40900095
:102ec4000040e800304798003e409000f94f500021
:102ed400a8ff36002e489000e04f50001500320045
:102ee4000040eb00304798000f0037003e40900050
:102ef4000080fb0000004700f05090003e4090002e
:102f04000080fb00000047000050900080cf50007c
:102f1400020032000040eb00604f98003e409000f9
:102f24000040e800304798003e409000e64f5000d3
:102f3400eeff36003200200061e628000080200009
:102f44005bf6070000802000c8040700b2012000df
:102f540091e628000080200055f607000040eb00b1
:102f6400304798002d0037003e4090000080fb0061
:102f740000004700705090008080fb00a0002000fb
:102f840080017800110009008380d8008000fd00d2
:102f9400104798003e4090000080fb00000047006e
:102fa400705090008080fb001e4090000080fb0069
:102fb40080805000a000200000017800110009006a
:102fc4008200d800404f98003e4090000080fb00f3
:102fd40000004000000178004e4890000043b0001b
:102fe4000180200081004100804878003e4090002c
:102ff4000080fb00000040000001e8001e4090003b
:103004000043b00001802000810041008048780026
:103014003e4090000040e800304798003e40900059
:10302400e64f5000d0ff3600008020008f040700d8
:103034000040eb00304798000b0037003e40900002
:103044008080fb003e4090000080fb0000004700b1
:103054007050900081004700805098003e409000de
:103064000040e800304798003e409000e64f500092
:10307400f2ff36003200200061e6280000802000c4
:103084000bf607000080200078040700b20120003e
:1030940091e628000080200005f607000040eb00c0
:1030a400304798002d0037003e4090000080fb0020
:1030b40000004700005090008080fb00a00020002a
:1030c40080017800110009008380d8008000fd0091
:1030d400104798003e4090000080fb00000047002d
:1030e400005090008080fb001e4090000080fb0098
:1030f40080805000a0002000000178001100090029
:103104008200d800404f98003e4090000080fb00b1
:1031140000004000000178004e4890000043b000d9
:103124000180200081004100804878003e409000ea
:103134000080fb00000040000001e8001e409000f9
:103144000043b000018020008100410080487800e5
:103154003e4090000040e800304798003e40900018
:10316400e64f5000d0ff3600008020003f040700e7
:103174000040eb00704f98000040eb00104f9800a7
:103184000040eb00304798009e00370042012000c9
:1031940041e8280000802000c5f507003e4090006b
:1031a4000043b00008e8b700008020002f040700a7
:1031b400be419000734f98000040eb00104f980000
:1031c4003e4090000080fb0000004700005090004b
:1031d400e04f50000c003a006201200081e9280011
:1031e40000802000b2f507007e4890001043b00034
:1031f4000ce8b700008020001c0407000040eb002e
:10320400104f98007c003700e2002000e1ea28001b
:1032140000802000a6f507007e4890001043b0000f
:103224000ae8b70000802000100407001e48900040
:103234008080fb00a000200000017800110009003c
:103244008280d8008000fd00104798001e4890003e
:103254008080fb001e4090000080fb0080805000b6
:10326400a000200080017800110009008300d8002c
:10327400404f9800f2002000c1eb2800008020009d
:103284008bf507004e4890000043b0000ae8b700f1
:103294001e4090000043b0000be8b70000802000ff
:1032a400f203070046003700c402a900c422a900a3
:1032b400c442a900c462a900c482a900c4a2a9008e
:1032c400c4c2a9007e489000e04f500001003a00bb
:1032d400c402a8007e489000e14f500001003a006b
:1032e400c422a8007e489000e24f500001003a003a
:1032f400c442a8007e489000e34f500001003a0009
:10330400c462a8007e489000e44f500001003a00d7
:10331400c482a8007e489000e54f500001003a00a6
:10332400c4a2a8007e489000e64f500001003a0075
:10333400c4c2a800803e2000cf0507001e489000ac
:103344000040e800104f980042002000b1ec280033
:103354000080200056f507001e4890008080fb0086
:10336400a000200000017800110009008280d8002c
:103374008000fd00104798001e4890008080fb00ec
:103384001e4090000080fb0080805000a0002000c0
:1033940080017800110009008300d800404f980094
:1033a4004e4890000043b00000e8b7001e40900073
:1033b4000043b00001e8b70000802000ab03070021
:1033c4003e4090000080fb000000470080509000c9
:1033d4001e48900080cf5000b3ff3e00c402a900f5
:1033e400c422a900c442a900c462a900c482a900dd
:1033f400c4a2a900c4c2a9003e4090000040e80055
:10340400304798003e409000e64f50005fff360082
:103414002e4090000040e800204798002e40900085
:10342400f94f50004ffd36000000eb000080fa0019
:10343400000006000000fa00810507009f05070050
:1034440040012000340207005000200098040700c7
:1034540010002000a6040700de03070000902000ef
:10346400d10320002e030700f0ec28007f0307009f
:1034740040ed28007d03070080ed28007b03070052
:1034840000c22800801f7800c0ef2800801f780049
:10349400008020000ef50700e4875700008020001c
:1034a4007203070060c22800801f7800a0f0280083
:1034b400801f78000080200005f50700e48757008e
:1034c400008020006903070020c32800801f7800c3
:1034d400b0f12800801f780000802000fcf4070071
:1034e400e487570000802000600307007204200076
:1034f400e1f2280000802000edf4070000802000a5
:103504005a030700c204200051f72800008020005d
:10351400e7f4070000802000540307000090200017
:10352400d10320005e0007000080fa0000000600be
:103534000400fa0050c0b3003e04070010079800ce
:103544001e0090000100200011f40700926c270077
:10355400e3db230025f40700f2f307000000780002
:103564000002b000100798001e009000004f780081
:103574001e407800ff4f500002003c0000c2b30020
:10358400004f78001e4078000080fa00000006001a
:103594000200fa000040eb00004f78001000200009
:1035a400d9040700e04f50000200320010c0b300fd
:1035b400004f780020002000d3040700e04f5000a3
:1035c4000200320020c0b300004f78003000200019
:1035d400cd040700e04f50000200320040c0b300a9
:1035e400004f780040002000c7040700e04f50005f
:1035f4000200320080c0b300004f78001e40780003
:103604000080fa00000006000200fa00000f7800b3
:103614001e0078001503070001c8b3000000eb008a
:103624009f030700800c2000130507001e0078008c
:10363400b0030700007d20000f0507000080fa009a
:10364400000006000200fa00000f780001c8b30071
:103654000000eb0092030700800c20000605070021
:103664001e007800a3030700007d20000205070068
:103674000080fa00000006000200fa00000f780043
:103684001e007800f90207001e00780061000700a0
:10369400803e2000f80407000080fa0000000600c5
:1036a4000400fa00008fbe00de02a900de06a800b6
:1036b400e002a900e0c2a900dec2a900e0e2a9007c
:1036c400dee6a800dee2a900e002a90021e2a900ea
:1036d4002342a9008580a9009580a9008560a900de
:1036e4009560a90021e2a90021a2a9002182a900d4
:1036f4002162a90001118000f0cf2f00008060003a
:103704000011880020e2a90020c2a90020a2a9007b
:103714002082a9002062a9000111800090ff2f00df
:1037240000806000001188002002a9001e00be0075
:103734000280250023002000e0f307000000780049
:103744000000e9004011880023e2a90023c2a90077
:1037540023a2a9002362a9002342a9002322a900cd
:103764002302a90011118000f0f32f0000806000f3
:103774001011880022a2a9002282a9002262a900b5
:103784002242a9002222a9002202a9008580a900c0
:103794009580a9008560a9009560a80021e2a80091
:1037a4002342a800e002a8000080fa0000000600fe
:1037b4000200fa00000f78000000000011118000e0
:1037c4000020200000806000e00f5000fbff3a0062
:1037d4001e007800201188000080fa000000060016
:1037e4000200fa0000000000210480000080200094
:1037f40000806000e00f5000fbff320030118000b9
:10380400004f78008560a9001e4078000080fa000f
:10381400000006000200fa00000f780005003700df
:103824001e007800104078000000fb001e0fe80026
:10383400dfff07001e00780010407800e04f5000c2
:10384400f7ff3a000080fa00000006000600fa00c4
:1038540010079800210798001e009000000f7800c0
:10386400dfff07009e009000804878001e00900053
:1038740010407800e84f50000e003a001e009000ff
:103884009e0f50000b00360000022000c8ff070006
:1038940080002000c6ff07002e0090000000e80012
:1038a400200798001e0090000000e900100798000f
:1038b400100037001e00900010407800ea4f5000be
:1038c4000b0032001e00900010407800ed4f5000b5
:1038d4000c0032001e0090000000e8001007980061
:1038e4002e0090000000e900200798000100370036
:1038f400000000002e009000e10f5000d8ff3e00b1
:1039040001003700000000009e0090000040eb0022
:10391400804878001e0078000080fa00000006004d
:10392400809fbe000000fa008560a900000000002e
:103934001011800061006000e00f5000fcff3200b5
:1039440000000000111180000020200000806000b1
:10395400e00f5000fbff3a0030118000a0118800f6
:10396400304980000000e8003049880025c9bf00c4
:10397400e04f50000c003a00311180001004200088
:10398400808f500008003a0010c0b30024e9b7004b
:103994000000eb0000458800208a200010498800c0
:1039a400800220003049880025c9bf00e04f500044
:1039b40044003a0024c9bf00e04f500041003200e7
:1039c400800220003049880031118000100220005c
:1039d400808f500024003a000040eb0024e9b70037
:1039e400104980000000e800104988001149800057
:1039f4003011800000407800804878001049800031
:103a04000000e8001049880011498000a0c0b300fc
:103a140080487800104980000000e80010498800c0
:103a2400114980000040eb00804878001049800074
:103a340080007800208a2000008050000045880023
:103a440000458000f30f50001e003c0010c0b3007e
:103a540025e9b7000040eb0028e9b70020c0b30017
:103a640029e9b70017003700104980000000e8007a
:103a7400104988001149800030118000004078000e
:103a8400804878001149800010922000808f5000f7
:103a940002003900208a2000104988001049800063
:103aa40080007800208a20000080500000458800b3
:103ab40000458000eb0f5000020034000040eb0092
:103ac40024e9b70025c9bf00e04f50008f00320041
:103ad40029c9bf00e14f50008c003c003111800027
:103ae40010062000808f50000d003a000000eb000b
:103af40000458800208a2000104988001149800070
:103b04003011800000407800804878000000eb000d
:103b1400304988000040eb0028e9b7007b003700fb
:103b240030498000e10f50000c003a003111800050
:103b340030072000808f500008003a0010498000b0
:103b44000000e8001049880011498000301180000d
:103b540000407800804878006c00370030498000cd
:103b6400e20f50000c003a003111800030062000b2
:103b7400808f500008003a00104980000000e800df
:103b840010498800114980003011800000407800fd
:103b9400804878005d00370030498000e30f500012
:103ba4000c003a003111800090062000808f5000f4
:103bb40008003a00104980000000e800104988001d
:103bc400114980003011800000407800804878005e
:103bd4004e00370030498000e40f500010003a00d6
:103be4003111800090062000808f50000c003a00b4
:103bf400104980000000e800104988001149800045
:103c040030118000004078008048780010c0b30074
:103c140028e9b70010c0b30029e9b7003b0037001a
:103c240028c9bf00e04f5000360032003111800037
:103c340020022000808f500019003a0010498000b3
:103c44000000e8001049880011498000301180000c
:103c54000040780080487800104980000000e800a7
:103c64001049880011498000a0c0b3008048780042
:103c7400104980000000e8001049880011498000c4
:103c84000040eb00804878001049800080007800f4
:103c9400208a200000805000004588001b00370067
:103ca400104980000000e800104988001149800094
:103cb400301180000040780080487800114980006d
:103cc40010922000808f500002003900208a2000ca
:103cd400104988001049800080007800208a200064
:103ce4000080500000458800014580000005200048
:103cf400808f5000050034000040eb0028e9b70035
:103d0400020037000000eb00304988000080fa0010
:103d14004f00be00004006000200fa00000f7800c9
:103d24008660a9009660a9001e00780008000700bc
:103d34001e007800180007001e0078002900070004
:103d44001e0078003a0007000080fa000000060018
:103d54000200fa00000f7800d3a2a8001e01780028
:103d6400d1002000402d2000ba0007000040780058
:103d7400614060000080fb006100600052498000e7
:103d8400e1ff2f008100610000807000504988002d
:103d94000080fa00000006000200fa00000f78001c
:103da400c0e2a8001e01780071002000202c200031
:103db400a800070000407800614060000080fb001c
:103dc400610060000000400052498000d1ff2f00d4
:103dd4008100610000807000504988000080fa0072
:103de400000006000200fa00000f7800d2e2a800ea
:103df4001e01780071002000402d2000950007006e
:103e040000407800614060000080fb0061006000b9
:103e14004200dd0052498000b1ff2f0081006100a3
:103e240000807000504988000080fa0000000600fd
:103e34000200fa00000f7800d2c2a8001e01780028
:103e440061002000402d200082000700004078001f
:103e5400614060000080fb00610060004300dd0001
:103e64005249800071ff2f008100610000807000c2
:103e7400504988000080fa00000006000200fa00a1
:103e8400000f7800a01680004d00de00e1406000c5
:103e9400504980006140600080cf50000d00320026
:103ea4001e017800d1002000402d20006900070089
:103eb40000407800614060000080fb006100600009
:103ec40052498000e1ff2f008100610000807000f2
:103ed400504988000080fa00000006000200fa0041
:103ee400000f7800101680004700de00e1406000fb
:103ef400504980000000d1006140600080cf500034
:103f04000e0032001e01780071002000202c2000d9
:103f14005000070000407800614060000080fb0012
:103f2400610060000000400052498000d1ff2f0072
:103f34008100610000807000504988000080fa0010
:103f4400000006000200fa00000f7800a0168000ae
:103f54004700de00e1406000504980004200de007e
:103f64006140600080cf50000e0032001e017800d6
:103f740071002000402d200036000700004078002a
:103f8400614060000080fb00610060004200dd00d1
:103f940052498000b1ff2f00810061000080700051
:103fa400504988000080fa00000006000200fa0070
:103fb400000f7800a01680004600de00e14060009b
:103fc400504980004300de006140600080cf500013
:103fd4000e0032001e01780061002000402d2000f8
:103fe4001c00070000407800614060000080fb0076
:103ff400610060004300dd005249800071ff2f0022
:104004008100610000807000504988000080fa003f
:10401400000006000400fa00000f78001107980061
:104024001e00900095ff07001e009000abff0700e4
:104034001e009000c3ff07001e009000dbff070076
:10404400514980001e007800010878000080fa00c1
:10405400000006000c00fa003007980041079800a1
:104064005207980000002800000f78005e009000be
:104074001e004000100798005e0090001e00100013
:10408400200798001c003700100020007a02070067
:104094003e009000900078004e0090001200200036
:1040a4000010dd0000806000e00f500009003a00bd
:1040b4001e0fe8001e0090009e007800808f5000c4
:1040c4000d0036001e009000000f78000000eb0089
:1040d400110037001e0fe9002e0090009e007800aa
:1040e400808f5000040031002e009000000f7800f3
:1040f40010002000080037002e0090009e0f500092
:1041040004003e001e0090009e007800808f500046
:10411400ddff36000000eb000080fa00000006001e
:104124000400fa00008fbe0031e2a9003342a90066
:1041340087e0a90097e0a90087c0a90097c0a9005b
:1041440031e2a90031a2a9003182a9003162a9009b
:1041540081118000f0cf2f00008060008011880062
:1041640030e2a90030c2a90030a2a9003082a9001f
:104174003062a9008111800090ff2f000080600050
:10418400801188003002a9001e00be0002802500b4
:104194002300200049f10700000078000000e90036
:1041a400c011880033e2a90033c2a90033a2a900d8
:1041b4003362a9003342a9003322a9003302a900c3
:1041c40091118000f0f32f000080600090118800ae
:1041d40032a2a9003282a9003262a9003242a900a7
:1041e4003222a9003202a90087e0a90097e0a900c1
:1041f40087c0a90097c0a80031e2a8003342a800f4
:104204000080fa00000006000200fa00000f7800a7
:104214000000000091118000002020000080600058
:10422400e00f5000fbff3a001e007800a011880048
:104234000080fa00000006000200fa0000000000fe
:10424400310480000000240000806000e00f500072
:10425400fbff3200b0118000004f780087c0a90036
:104264001e4078000080fa00000006000200fa00f8
:10427400000f7800050037001e0078001040780019
:104284000000fb001e0fe800dfff07001e0078009f
:1042940010407800e04f5000f7ff3a000080fa0029
:1042a400000006000600fa00100798002107980095
:1042b4001e009000000f7800dfff07009e009000b2
:1042c400804878001e009000104078000000fb0039
:1042d400cdff07001e00900010407800e84f50000a
:1042e4000e003a001e0090009e0f50000b00360096
:1042f40000022000c4ff070080002000c2ff070066
:104304002e0090000000e800200798001e00900096
:104314000000e90010079800100037001e0090000c
:1043240010407800ea4f50000b0032001e0090004d
:1043340010407800ed4f50000c0032001e00900039
:104344000000e800100798002e0090000000e9002b
:104354002007980001003700000000002e009000a4
:10436400e10f5000d4ff3e000100370000000000c0
:104374009e0090000040eb00804878001e0078000a
:104384000080fa0000000600809fbe000000fa00d2
:1043940087c0a90000000000901180006100600047
:1043a400e00f5000fcff320000000000911180007b
:1043b4000020200000806000e00f5000fbff3a0066
:1043c400b0118000201188000080fa004f00be0068
:1043d400004006000000fa00f03b2800003088008e
:1043e400f03f20001030880010002000603088006a
:1043f400e0012000a00107000000eb00203088004d
:104404008003200040308800100020009a0107003b
:10441400c0002000403088001000200096010700f2
:104424001000200040308800200020009201070086
:104434006000200040308800200020008e0107002a
:104444000080fa00000006000400fa00100798003b
:10445400000000001130800000002800008060008f
:10446400e00f5000fbff3a001e009000203088004f
:1044740040308000000f7800000000001130800000
:104484000000280000806000e00f5000fbff3a00ad
:1044940040308000004078000080fa0000000600f0
:1044a4000400fa00000f7800214798000000000083
:1044b4000000eb00e4ff0700e04f5000fcff350074
:1044c400000000001130800000002800008060001f
:1044d400e00f5000fbff3a001e00780020308800f7
:1044e4002e4090000000fb00403088000080fa005d
:1044f400000006000600fa002007980010002000c3
:10450400000f7800100020001007980026003700e4
:104514002e009000104078000000fb00ea0f5000cd
:1045240015003a001e007800e10f5000030032002d
:10453400e20f5000060032000b00370001ccb3003c
:104544000000eb00d6ff07001e0fe800090037004b
:1045540001c8b3000000eb00d1ff070010002000e9
:10456400000f78000300370010002000000f7800cf
:1045740000000000090037002e0090001040780071
:104584008040780010002000c5ff07001e00900046
:104594000000e80010079800000000002e009000c2
:1045a4000000e800200798002e00900010407800da
:1045b400e04f5000d6ff3a000080fa0000000600e9
:1045c4000400fa00100798001e009000e40f500049
:1045d40004003200e50f50000400320000c0eb007c
:1045e4001200370000000000010037000000000046
:1045f4001e009000004078000e000700a10020007b
:1046040001017800110009000280d800004f7800f1
:1046140040c6b3009e40780080cf500002003600b0
:1046240040c6b300004f78001e4078000080fa00b6
:10463400000006000400fa00204798002e40900075
:104644000000fb00401988002023a8000000eb00b4
:10465400000f7800010037001e0fe800703e2000b4
:104664009e007800808f5000fbff36002023a900b5
:104674000000eb00000f7800010037001e0fe80077
:10468400703e20009e007800808f5000fbff3600b3
:10469400000000000019800061006000e00f50007d
:1046a400fcff3200001880000080fa0000000600c1
:1046b4000200fa00000f78001e007800e40f50009a
:1046c40005003200e50f500006003a002ca3a900b3
:1046d40010c0b300040037002c83a90010c0b3003d
:1046e400010037000040eb000080fa0000000600e3
:1046f4000200fa00000f780001198000000e20006b
:1047040000807000001988002043a800111980005f
:10471400f0ff21000080600010198800111980004a
:1047240030fc2f0000806000101988002343a9008a
:104734002203a900f0c2b30024e3b70021198000ca
:10474400f00f2e0080806000003020000080700098
:104754002019880021e3a800500020004019880097
:104764000000eb008019880010c0b3000080fa003c
:04477400000006003b
:020000040000fa
:104778002a0900000200000000000000a008000054
:104788008a0000000000000000080000a0000000ef
:1047980000000000f20900001800000002000000fc
:1047a800286e75006c6c29000030310032333400fb
:1047b8003536370038396100626364006566000089
:1047c8002c090000a0000000020000000100000009
:1047d8000000000000000a000000000000000000c7
:1047e800006400000000000000000000e803000072
:1047f800000000000000100027000000000000007a
:1048080000a08600010000000000000040420f00e8
:1048180000000000000080009698000000000000e2
:104828000000e100f50500000000000000ca9a0041
:104838003b00000000000000e40b540002000000f0
:104848000000e80076481700000000000010a500ee
:10485800d4e8000000000000a0724e001809000013
:10486800000040007a10f3005a0000000080c600e3
:10487800a47e8d000300000000c16f00f2862300b3
:10488800000000008a5d78004563010000006400b4
:10489800a7b3b600e00d000000e889000423c700b4
:1048a8008a0000000a0a000006000000000000005c
:1048b800cc09000026000000020000000b0a0000de
:1048c800000b0a0009000000000200000d0a0000a9
:1048d800000d0a000e0201000000000000000000a8
:1048e800000000000602020000000000cc090000e1
:1048f800100a000002000000020000000100000091
:0449080000000000ab
:020000040000fa
:10490c000200fa00000f78001e0078000100200061
:10491c004200200003002000820f5000838f5800bb
:10492c0028003e000060010024003700030037001f
:10493c000a0037001100370018003700a11680005c
:10494c00000420008080600010c0b300e08f500095
:10495c001d0032000040eb001b003700a116800048
:10496c00000820008080600010c0b300e08f500071
:10497c00150032000040eb001300370011168000c8
:10498c00000820008080600010c0b300e08f500051
:10499c000d0032000040eb000b003700a116800028
:1049ac00000022008080600010c0b300e08f500037
:1049bc00050032000040eb00030037000040eb0024
:1049cc00010037000040eb000080fa0000000600f8
:1049dc000200fa00000f78001e0078000100200091
:1049ec004200200003002000820f5000838f5800eb
:1049fc000f003e00006001000c0037000300370080
:104a0c00040037000500370006003700d2c2a800aa
:104a1c0007003700d2e2a80005003700c0e2a8006a
:104a2c0003003700d3a2a8000100370000000000eb
:104a3c000080fa00000006000000fa000421a90022
:104a4c0021088000f0fc2f00008060002008880006
:104a5c0000eb2000100888000000eb000008880024
:104a6c008460a90005e1a8000080fa00000006009f
:104a7c000200fa00000f7800090037000000eb007c
:104a8c00000888008460a900000000002004800059
:104a9c0068006000e00f5000fcff32001e0fe900c0
:104aac001e007800e00f5000f4ff3a000080fa007e
:104abc00000006000000fa00c402a900c002a90010
:104acc00c422a900c022a900c442a900c042a90066
:104adc00c462a900c062a900c482a900c082a90056
:104aec00c4a2a900c0a2a900c4c2a900c0c2a90046
:084afc000080fa000000060032
:020000040000fa
:020000040002f8
:04aff800bdfa00009e
:020000040000fa
:020000040002f8
:04affc007f3f000093
:00000001FF
