:020000040000fa
:080000000002040000000000f2
:020000040000fa
:1000080090020000900200009002000090020000a0
:100018009002000090020000900200009002000090
:100028009002000090020000900200009002000080
:100038009002000090020000900200009002000070
:020000040000fa
:020000040000fa
:10040000cf9620000e7f22000e0188000000000021
:100410000c00070040f3200001002000110007003d
:10042000000020000000e000020032000000020096
:1004300000000000f80f0200000000000040da0099
:100440000000fe004440a900c00820000000e000b9
:100450000300320000002000a00188004440a800f2
:100460000000060091018800800078000000eb0089
:1004700015003700e280400032a0b4009101ba00bc
:10048000e280400032a0b4009102ba00e280400055
:1004900032a0b4000002eb00472bde00f507b200eb
:1004a000602ce10004003a000059eb008301e900f0
:1004b000fdff3e00040037006128e100010032002a
:1004c0000082eb00040007001101ba000200e00006
:1004d000e8ff3a00000006003159ba008301e90044
:1004e0000c0032002159ba008301e90008003200f3
:1004f0000400e00003003a00e280400032a0b400b3
:10050000f5ff370011d9ba008301e900faff3a007c
:100510008100e800e180400032a0b4000000060045
:100520000040da000000fe006022b8000602200051
:100530000000d0008180d2000482d2008582d200e7
:100540000000a0000202520083825a000300310022
:100550000202420083824a000000a1000603e90073
:10056000f3ff3a0000000600800178000200370027
:10057000b1597800040178000202e900e00f51004f
:10058000fbff3a00000006000c00fa00889fbe0046
:1005900000047800f0ff2700d0bf9f008004eb002c
:1005a00099bf9f0088bf9f00a8bf9f00200c20001c
:1005b000b0bf9f0078815700cfb097007080570080
:1005c000070007000fb89700094878008fb8970018
:1005d000088050004f04be000080fa0000000600b2
:1005e0008f03b000889fbe008a9fbe008c9fbe0014
:1005f0008e1f7800c0b79f00e1af9f00b2af9f0091
:100600000000eb00b0b79f00f2023700efa89700a0
:100610008100e800e1af9f0052c2b300824f50005a
:1006200006003a000047eb0003c3b30065415100e8
:10063000b1c2b3006fa8970011003700cfb1970087
:10064000330190000204b20004003200130178006c
:10065000004978008209e800050037000000fb002f
:10066000cfb09700e7020700e10f4000d902320047
:100670003fb297000402e800b4b79f00d5023700ec
:1006800010427800d5c2b300854f52000c003200f2
:100690008002e800d6c2b300864f520005003c003d
:1006a000824f520009003200814f52000e003a0082
:1006b00008003700834f52000b003a000700370054
:1006c0000e34a0000000e800edff37000e04a0008b
:1006d000030037000e14a000010037000e24a00014
:1006e00005007800e6ff3700e0af9f00620067007a
:1006f000010032000e04a100680067000100320012
:100700000e24a1000400fb000003b100e90f50001b
:100710000d003e00000020006fa997006a00b9009c
:100720000003b1009200fb0001004000d200fb007a
:100730000103b100e98f5000f8ff3600c0af9f0001
:10074000e2af9f000c0037000005eb00caaf9f002e
:10075000a3c2b300834f520007003a00bfad970019
:100760004b067800bbaf9f00ccaf9f006fa89700ef
:100770000000e800e0af9f008000eb00d1af9f00d9
:10078000e3c2b3006fa9970092cf11001c003a009a
:10079000e4c151000201e800e2af9f00124278007c
:1007a000834f52000d003a00bfaa9700450378001e
:1007b000b5af9f00d6af9f00820378008703e800a3
:1007c000e7af9f000e0037006a00b9000003b100d8
:1007d000020040008301e800020037005fa8970094
:1007e000efa997001301fb0001fd2f00828040005c
:1007f000e98f5000f4ff3600d0af9f00e3af9f00b9
:1008000032c6b300c1c6b300efaa970035427800e4
:10081000c47f9f0038c7b300884f52001a003200cf
:1008200008003c00824f520097003200814f520076
:100830000c003200e5af9f00e04f52006a02320028
:10084000b0003700e5af9f0053c7b300834f52009d
:10085000b2003200e3c14100834f5200a9003a00c8
:1008600006003700f00167000040eb0001003a008d
:1008700000c1b30000477700e4ff37000e41780065
:100880000274a000a7003700e5af9f003fad9700be
:100890004a027800baaf9f00f4af9f00e00f520009
:1008a00002003a00cc942000fcaf9f000000eb0057
:1008b00080b79f007fa897008fb097001fb1970067
:1008c000afb19700010037008500e8008102780091
:1008d00061427800e04f5200fbff3a00f0af9f000a
:1008e00081b79f0092b79f00a3b79f00dfaa970030
:1008f000e08f5200050032000fb39700868f520040
:10090000020031008503780087b79f000fb297007f
:100910000006eb004fac9700840f54000100360036
:10092000040654008e047800688764002f003a00a3
:100930000c00780008c2b300cfb697001000370053
:100940003d0090000004b200040032001d00780059
:1009500008487800800ee800050037008d00780018
:100960000002200027020700e10f400003003200d0
:100970003fb597000a05e800bab79f000c00780061
:100980000c06e900e00f5000edff3a0017003700b9
:100990003d0090000004b200090032009d01780083
:1009a000080178003240780080497800830ee80022
:1009b00002047800e04f500008003a0010003700b1
:1009c000080178003200fb00020478008d007800f6
:1009d0000c020700e10f4000090032003fb0970011
:1009e0000000e800b0b79f00050037007fac97001b
:1009f0008fb497001fb59700afb59700cfb697009b
:100a0000090078008004e900e00f5000e0ff3a00a0
:100a1000f8af9f0089b79f009ab79f00abb79f00c0
:100a2000e00f5700eb013200110037003800900052
:100a30000004b20004003200180078000d4878006d
:100a4000000ce80005003700880078000002200054
:100a5000ec010700e10f400003003200bfb2970035
:100a60008502e800b5b79f000e0678000200370047
:100a70000dc2b3004fb497000c07e900e00f560019
:100a8000eaff3a00d3013700e5af9f003fab970084
:100a900046047800b6af9f00cfc4de000905780099
:100aa0008a0578000802be000a03be004822de0064
:100ab000482edd0004027600c47f9f0070066700a8
:100ac00009003200e04f520007003200e14f4200bf
:100ad00005003200d47f9f00e87f9f0021002000a6
:100ae00081b79f0003003700d87f9f0012002000cd
:100af00082b79f00d3fb2f0083814700f3af9f0095
:100b00007aff3700c4fb2f0004824700f4af9f0038
:100b10001500200085b79f0074ff370002ccb3009a
:100b2000024177000281fb00a2af9f0070036100c9
:100b300086a79f00120032003fad97004a04be0016
:100b4000baaf9f00d8a79f00e9a79f008005eb00e0
:100b5000fba79f000006eb008caf9f005fa09700f3
:100b6000efa097007fa197008fa99700f0af9f009b
:100b700081b79f0092b79f00a3b79f000b0037007b
:100b8000bfa8970041027800b1af9f00040478002d
:100b9000090020000a0020000b002000f8af9f0091
:100ba00089b79f009ab79f00abb79f00dfac970053
:100bb000e08f54000d003a001a002000daaf9f00c9
:100bc0007fa897008fb097001fb19700afb1970033
:100bd000e00f5000e08f5800e00f5900e08f5900ff
:100be000020032008000eb00d1af9f002fa99700d8
:100bf000020cb20092af9f0004082000840f510045
:100c00001b003200040c2000840f510033003a0016
:100c100012c0b300c27f9f0065882000100037001b
:100c20000400fb004300dd00008042005001be00d4
:100c30004000be007fac97008fb497001fb59700af
:100c4000afb597000040e10001c8e10002d0e1002b
:100c500003d8e100210039000442e800c47f9f006e
:100c60004f7a9700f44f5200edff3a001b00370017
:100c700012c0b300c27f9f000401200005002000c5
:100c80006033b800120037007fac97008fb4970034
:100c90001fb59700afb597000440e10005c8e1001b
:100ca00006d0e10007d8e1000c003900490020001f
:100cb0000402d0008582d2000683d2008783d2004e
:100cc0008904e900faff3a000040e800c07f9f0075
:100cd0004f789700f04f5000ebff3a004f7d9700a0
:100ce0000a02fb00dfad97008b0f520002003d00af
:100cf000cb7f9f00040037005fae9700840f560043
:100d000001003d00d4af9f004fa89700e00f5000b6
:100d100005003200afa89700638260000200320035
:100d20000000e900c0af9f004f7997000202fb006e
:100d30000007eb00cfa99700848f51000100340019
:100d400004875100afaa9700648262004a00320013
:100d50006282620005037800e1026300e00f520046
:100d60001b003200cfb39700370290000404b2009a
:100d70000900320017037800b4c2b300e08f5200bc
:100d80000100320004c2e800044b78004fb4970021
:100d9000060ce8000a003700d4022000e08f520061
:100da00001003a000482e900cfb097000400780007
:100db0001401070000027800e10f42001800320021
:100dc000bfb497008904e800b9b79f00140037004a
:100dd000e08f5200120032004fb597003a029000a7
:100de0000404b200050032001a02780002c2b30007
:100df000024a7800040de80006003700cfb09700e3
:100e000000022000ff00070000027800e10f42000e
:100e100003003200bfb597008b05e800bbb79f0009
:100e2000e00f5700c500320008c3b300bfb69700fb
:100e30004fb697003c0090000004b200040032005e
:100e40001c00780008487800000ee8000500370014
:100e50008c00780000032000ea000700e10f40004a
:100e6000010032008d06e8000e07e900f1ff3a00ac
:100e7000bdb79f00b1003700e00f570016003200e9
:100e80002fae97006802660013003a0008c2b30054
:100e9000bfb697004fb697003c0090000004b20028
:100ea000040032001c00780008487800000ee800ba
:100eb000050037008c00780000022000d1000700f8
:100ec000e10f4000010032008d06e8000e07e90046
:100ed000f1ff3a00bdb79f002fa8970062026000a3
:100ee000e1026000e00f52001b003200cfb097001b
:100ef000310290000404b2000900320011037800ae
:100f0000b4c2b300e08f52000100320004c2e80016
:100f1000044b78004fb197000609e8000a0037003b
:100f2000d4022000e08f520001003a000482e90060
:100f3000cfb0970004007800b200070000027800ec
:100f4000e10f42007d003200bfb197008301e8004d
:100f5000b3b79f0079003700e08f5200770032006e
:100f6000cfb29700350290000404b20005003200b1
:100f70001502780002c2b300024a7800840ae80031
:100f800006003700cfb09700000220009d00070048
:100f900000027800e10f4200680032003fb3970082
:100fa0000603e800b6b79f00640037000e07e900ab
:100fb000000820001fac9700800f54003200320060
:100fc000000c2000800f54003e003a004370dd000a
:100fd0008fa49700e08f54001a0032000406be0070
:100fe0006a882000000045003004be002005be00d5
:100ff0000801be000400be004bfd0700c07f9f003b
:101000000000fb00cf80de000801be0033010700b6
:101010000001560081815e0092a79f00a3a79f0058
:101020008001eb00b3a79f000002eb00c4a79f0064
:101030001fa29700afa297003fa39700cfa39700ee
:101040000d0037006888200068017800811f780053
:10105000110009000282d800cf007800a200200011
:10106000811f7800110009000280d800010078007b
:10107000cf007800c07f9f00cf7c97000943b0006d
:10108000c97f9f000f0037004270dd000605be00db
:101090000404be00000678000c06e90005003300d9
:1010a0008b05d1000a85d3008984d3000884d3003e
:1010b000f9ff37006f00640031952000614078002f
:1010c000c07f9f004fb19700320090000004b20033
:1010d0000800320082017800130178004f789700f1
:1010e000004978008209e800e04f50000f003a0004
:1010f000190037004f7c97000800fb00cfb0970025
:10110000d4b79f00e5b79f00f6b79f0087bf9f0049
:101110003c0007005fb29700efb297007fb39700e3
:101120008fbb9700e10f40000b003200bfb4970067
:101130008904e800b9b79f00070037000e05780062
:10114000caaf9f005faf97007faa97008fb297004a
:101150001fb39700afb39700e00f570093ff3a001b
:101160004faf9700f4af9f0085b79f0096b79f00e1
:10117000a7b79f00afa897006881600015003200f4
:10118000e00f57001300340008c2b300bfb6970049
:101190004fb697003c0090000004b20004003200fb
:1011a0001c00780008487800000ee80005003700b1
:1011b0008c0078000002200012000700e10f4000c0
:1011c000010032008d06e8000e07e900f1ff3a0049
:1011d000bdb79f006fa9970012407800c07f9f00a5
:1011e000e04f500009fd3a003fb097004f077800ec
:1011f0004f06be004f05be004f04be008f03b10076
:1012000000000600889fbe0001047800b80090002e
:10121000628160008084eb003c0032008101780034
:101220000320b2001801900002003a00e00f5100c4
:1012300036003a000190a000310498008004780044
:10124000f90fb200e00f510002003a0028009000b0
:10125000000c7800ea8f540006003a000100780084
:101260000008b20003003a0088007800d000200097
:10127000e4ff070018009000d8009000810f500094
:101280000b0032000000e8001004980018007800fd
:1012900009487800000ce80010c0b3004196200017
:1012a00080487800ea8f540018003a0005003700a3
:1012b0008800780009407800170007008004780053
:1012c00012003700380090000010b2000f0032000a
:1012d00018019000a80090004800900050000700fe
:1012e00098009000810f50000400320038009000f8
:1012f0000003b300300498008084eb000000eb0092
:101300001004980028009000000c78000900780074
:101310004f04be00000006000200fa00889fbe00d5
:10132000a0ff9f0001047800380090008000780042
:101330000104b20033003a00e200600005003a0008
:101340000003b30030049800110498000080eb0003
:101350002e003700d8049000e08f540006003a00b9
:1013600012002000e6805700480090002c00070083
:101370001904980023003700a8009000e08f500067
:1013800008003a007196200021049800010c7800b2
:101390002100200051049800110498000030a000a2
:1013a0003004980018019000a800900048009000b8
:1013b0001b000700280090008080eb0011049800bb
:1013c000aff8970001487800000ce8002ff897006c
:1013d000ea4f50000b003a00380090000010b200b5
:1013e0000800320018019000a8009000480090000a
:1013f0000b0007000000eb0010049800a80090000c
:10140000010c7800aff897000100fb004f04be000c
:101410000080fa000000060000c0da0000000600ac
:101420000a00fa00e20f500021003e00504b8000fd
:10143000e10f5000060032008523200044232000e5
:101440002323200000232000e08f520004003a00f4
:101450008522200044222000232220000022200098
:10146000060028009003630002003a00870a780013
:1014700010087300004020001300600001003a00d3
:1014800013a0a00002007800060037009302780045
:101490000510b200fdff3200b102fb00050a780022
:1014a0000000e900e00f5000f8ff3a0008003700a4
:1014b00033002000b3bf9f00c0bf9f00d1bf9f007b
:1014c000e2bf9f006a805700d3ff07006fb9970003
:1014d000020078000080fa0000000600020ab9004d
:1014e000001bb9000200b8008100420081004300e7
:0414f00000000600f2
:020000040000fa
:1014f400303000002e300000310000005365000041
:10150400702000003233000020320000303100002f
:1015140032000000313100003a310000353a000059
:101524003431000000570000694600006c79000067
:1015340020440000656d00006f0000001b5b00008c
:10154400324a0000001b00005b48000000770000e6
:10155400696600006c7900005f7000006963000038
:1015640074610000696c00005f640000656d000038
:101574006f5f00006578000070310000365f000086
:1015840070320000342000007465000073740000a1
:10159400206300006f640000652e00002e2e000002
:1015a4000d0a0000007600006572000073690000f7
:1015b4006f6e00003a200000257300000d0a000041
:1015c40000620000756900006c6400002064000083
:1015d40061740000653a000020250000730d0000ce
:1015e4000a00000062750000696c000064200000bd
:1015f400746900006d6500003a2000002573000046
:081604000d0a000000000000c7
:020000040000fa
:10160c000200fa00000f78008660a9009660a9001d
:10161c001e007800080007001e0078001800070064
:10162c001e007800290007001e0078003a00070011
:10163c000080fa00000006000200fa00000f78009b
:10164c00d3a2a8001e017800d1002000402d20005c
:10165c00ba00070000407800614060000080fb0089
:10166c006100600022448000e1ff2f0081006100d6
:10167c0000807000204488000080fa000000060002
:10168c000200fa00000f7800c0e2a8001e017800ea
:10169c0071002000202c2000a800070000407800da
:1016ac00614060000080fb006100600000004000b1
:1016bc0022448000d1ff2f00810061000080700067
:1016cc00204488000080fa00000006000200fa00a6
:1016dc00000f7800d2e2a8001e01780071002000f3
:1016ec00402d20009500070000407800614060000c
:1016fc000080fb00610060004200dd00224480009d
:10170c00b1ff2f0081006100008070002044880030
:10171c000080fa00000006000200fa00000f7800ba
:10172c00d2c2a8001e01780061002000402d2000cc
:10173c008200070000407800614060000080fb00e0
:10174c00610060004300dd002244800071ff2f0027
:10175c008100610000807000204488000080fa0045
:10176c00000006000200fa00000f7800a0168000ae
:10177c004d00de00e14060002044800061406000cc
:10178c0080cf50000d0032001e017800d1002000e7
:10179c00402d200069000700004078006140600087
:1017ac000080fb006100600022448000e1ff2f00fc
:1017bc008100610000807000204488000080fa00e5
:1017cc00000006000200fa00000f780010168000de
:1017dc004700de00e1406000204480000000d100a2
:1017ec006140600080cf50000e0032001e01780076
:1017fc0071002000202c20005000070000407800d1
:10180c00614060000080fb0061006000000040004f
:10181c0022448000d1ff2f00810061000080700005
:10182c00204488000080fa00000006000200fa0044
:10183c00000f7800a01680004700de00e140600039
:10184c00204480004200de006140600080cf5000e8
:10185c000e0032001e01780071002000402d200087
:10186c003600070000407800614060000080fb00fb
:10187c00610060004200dd0022448000b1ff2f00b7
:10188c008100610000807000204488000080fa0014
:10189c00000006000200fa00000f7800a01680007d
:1018ac004600de00e1406000204480004300de0082
:1018bc006140600080cf50000e0032001e017800a5
:1018cc0061002000402d20001c0007000040780023
:1018dc00614060000080fb00610060004300dd009f
:1018ec002244800071ff2f00810061000080700095
:1018fc00204488000080fa00000006000400fa0072
:10190c00000f7800110798001e00900095ff07004b
:10191c001e009000abff07001e009000c3ff0700e5
:10192c001e009000dbff0700214480001e007800a1
:10193c00010878000080fa00000006000c00fa0094
:10194c0030079800410798005207980000002800c3
:10195c00000f78005e0090001e00400010079800f9
:10196c005e0090001e001000200798001c0037003d
:10197c0010002000e20107003e009000900078006b
:10198c004e009000120020000010dd00008060006e
:10199c00e00f500009003a001e0fe8001e009000f6
:1019ac009e007800808f50000d0036001e009000c5
:1019bc00000f78000000eb00110037001e0fe9004b
:1019cc002e0090009e007800808f500004003100a3
:1019dc002e009000000f7800100020000800370047
:1019ec002e0090009e0f500004003e001e00900040
:1019fc009e007800808f5000ddff36000000eb0069
:101a0c000080fa00000006000400fa00008fbe00ff
:101a1c0031e2a9003342a90087e0a90097e0a900b0
:101a2c0087c0a90097c0a90031e2a90031a2a90082
:101a3c003182a9003162a90081118000f0cf2f0002
:101a4c00008060008011880030e2a90030c2a9003b
:101a5c0030a2a9003082a9003062a8008111800058
:101a6c0090ff2f0000806000801188003002a900d8
:101a7c001e00be000260290003002000a7fa070028
:101a8c00000078000000e900c011880033e2a900d2
:101a9c0033c2a90033a2a9003362a9003342a900c2
:101aac003322a9003302a90091118000f0f32f001a
:101abc00008060009011880032a2a9003282a90037
:101acc003262a9003242a9003222a9003202a900d6
:101adc0087e0a90097e0a90087c0a90097c0a900da
:101aec0031e2a8003342a8000080fa000000060092
:101afc000200fa00000f7800000000009111800035
:101b0c000020200000806000e00f5000fbff3a0036
:101b1c001e007800a01188000080fa00000006006a
:101b2c000200fa00000000003104800000002400d4
:101b3c0000806000e00f5000fbff3200b01180000d
:101b4c00004f780087c0a9001e4078000080fa0082
:101b5c00000006000200fa00000f780005003700b4
:101b6c001e007800104078000000fb001e0fe800fb
:101b7c00dfff07001e00780010407800e04f500097
:101b8c00f7ff3a000080fa00000006000600fa0099
:101b9c0010079800210798001e009000000f780095
:101bac00dfff07009e009000804878001e00900028
:101bbc00104078000000fb00cdff07001e009000d5
:101bcc0010407800e84f50000e003a001e009000c4
:101bdc009e0f50000b00360000022000c4ff0700cf
:101bec0080002000c2ff07002e0090000000e800db
:101bfc00200798001e0090000000e90010079800d4
:101c0c00100037001e00900010407800ea4f500082
:101c1c000b0032001e00900010407800ed4f500079
:101c2c000c0032001e0090000000e8001007980025
:101c3c002e0090000000e9002007980001003700fa
:101c4c00000000002e009000e10f5000d4ff3e0079
:101c5c0001003700000000009e0090000040eb00e7
:101c6c00804878001e0078000080fa000000060012
:101c7c000000fa00f03b280000308800f03f200004
:101c8c00103088001000200060308800e001200037
:101c9c001b0107000000eb002030880080032000af
:101cac00403088001000200015010700c000200003
:101cbc0040308800100020001101070010002000a7
:101ccc0040308800200020000d010700600020003b
:101cdc004030880020002000090107000080fa0035
:101cec00000006000400fa00100798000000000035
:101cfc00113080000000280000806000e00f5000d0
:101d0c00fbff3a001e00900020308800403080001d
:101d1c00000f780000000000113080000000280047
:101d2c0000806000e00f5000fbff3a004030800064
:101d3c00004078000080fa00000006000400fa0061
:101d4c00000f780021479800000000000000eb0015
:101d5c00e4ff0700e04f5000fcff350000000000de
:101d6c00113080000000280000806000e00f50005f
:101d7c00fbff3a001e007800203088002e409000b7
:101d8c000000fb00403088000080fa0000000600d4
:101d9c000600fa002007980010002000000f7800c1
:101dac001000200010079800260037002e0090002d
:101dbc00104078000000fb00ea0f500015003a00bc
:101dcc001e007800e10f500003003200e20f5000bb
:101ddc00060032000b00370001ccb3000000eb0012
:101dec00d6ff07001e0fe8000900370001c8b3003a
:101dfc000000eb00d1ff070010002000000f78005e
:101e0c000300370010002000000f780000000000d5
:101e1c00090037002e0090001040780080407800b8
:101e2c0010002000c5ff07001e0090000000e80015
:101e3c0010079800000000002e0090000000e80041
:101e4c00200798002e00900010407800e04f5000c2
:0c1e5c00d6ff3a000080fa0000000600eb
:020000040000fa
:101e680084080000020000000000000000080000d4
:101e780084000000000000004c0900001800000069
:101e880002000000286e75006c6c290000303100db
:101e98003233340035363700383961006263640004
:101ea8006566000086080000a0000000020000002f
:101eb800010000000000000000000a00000000000f
:101ec80000000000006400000000000000000000a6
:101ed800e8030000000000000000100027000000d8
:101ee8000000000000a086000100000000000000c3
:101ef80040420f000000000000008000969800009b
:101f0800000000000000e100f505000000000000ee
:101f180000ca9a003b00000000000000e40b5400d7
:101f2800020000000000e8007648170000000000ea
:101f38000010a500d4e8000000000000a0724e00c8
:101f480018090000000040007a10f3005a00000051
:101f58000080c600a47e8d000300000000c16f0051
:101f6800f2862300000000008a5d780045630100c6
:101f780000006400a7b3b600e00d000000e8890087
:101f88000423c7008a00000064090000060000005e
:101f980000000000260900002600000002000000e2
:101fa8006509000000650900090000000002000042
:101fb80067090000006709000e0201000000000028
:101fc80000000000000000000602020000000000ff
:101fd800260900006a090000020000000200000053
:081fe8000100000000000000f0
:020000040000fa
:101ff0000200fa000b000700b200200051a92800df
:102000000080200058f907000080200063ff0700cf
:10201000c6fe0700004f78001e00fb00b7fe070059
:10202000fbff37000000fa002a0007004800070005
:102030004001200075fd070010ff07000090200000
:10204000d103200073fe070000aa2800c4fe070089
:1020500050aa2800c2fe070090aa2800c0fe070070
:10206000a0a72800801f780050ad2800801f7800ae
:102070000080200044f90700e4875700008020001a
:10208000b7fe070000a82800801f780030ae2800a7
:10209000801f7800008020003bf90700e48757008c
:1020a00000802000aefe0700c0a82800801f780036
:1020b00040af2800801f78000080200032f9070020
:1020c000e487570000802000a5fe07000080fa008a
:1020d000000006000000fa000421a9002108800089
:1020e000f0fc2f00008060002008880000eb20003a
:1020f000100888000000eb00000888008460a90038
:1021000005e1a8000080fa00000006000200fa00c5
:10211000000f7800090037000000eb00000888007d
:102120008460a900000000002004800068006000b6
:10213000e00f5000fcff32001e0fe9001e00780087
:10214000e00f5000f4ff3a000080fa0000000600a3
:102150000000fa00c402a900c002a900c422a9001c
:10216000c022a900c442a900c042a900c462a900bb
:10217000c062a900c482a900c082a900c4a2a900ab
:10218000c0a2a900c4c2a900c0c2a9000080fa0070
:042190000000060045
:020000040000fa
:020000040002f8
:04aff800bdfa00009e
:020000040000fa
:020000040002f8
:04affc007f3f000093
:00000001FF
